{
  "contractName": "EventTest",
  "abi": [
    {
      "anonymous": false,
      "inputs": [
        {
          "indexed": true,
          "internalType": "uint256",
          "name": "id",
          "type": "uint256"
        },
        {
          "indexed": false,
          "internalType": "string",
          "name": "name",
          "type": "string"
        }
      ],
      "name": "notify",
      "type": "event"
    },
    {
      "constant": false,
      "inputs": [
        {
          "internalType": "uint256",
          "name": "id",
          "type": "uint256"
        },
        {
          "internalType": "string",
          "name": "name",
          "type": "string"
        },
        {
          "internalType": "uint8",
          "name": "age",
          "type": "uint8"
        },
        {
          "internalType": "uint128",
          "name": "phone",
          "type": "uint128"
        }
      ],
      "name": "setUser",
      "outputs": [],
      "payable": false,
      "stateMutability": "nonpayable",
      "type": "function"
    },
    {
      "constant": true,
      "inputs": [
        {
          "internalType": "uint256",
          "name": "id",
          "type": "uint256"
        }
      ],
      "name": "getUser",
      "outputs": [
        {
          "internalType": "uint256",
          "name": "",
          "type": "uint256"
        },
        {
          "internalType": "string",
          "name": "name",
          "type": "string"
        },
        {
          "internalType": "uint8",
          "name": "age",
          "type": "uint8"
        },
        {
          "internalType": "uint128",
          "name": "phone",
          "type": "uint128"
        }
      ],
      "payable": false,
      "stateMutability": "view",
      "type": "function"
    }
  ],
  "bytecode": "0x608060405234801561001057600080fd5b50610571806100206000396000f3fe608060405234801561001057600080fd5b50600436106100365760003560e01c8063373685b61461003b578063b0467deb14610129575b600080fd5b6101276004803603608081101561005157600080fd5b81019080803590602001909291908035906020019064010000000081111561007857600080fd5b82018360208201111561008a57600080fd5b803590602001918460018302840111640100000000831117156100ac57600080fd5b91908080601f016020809104026020016040519081016040528093929190818152602001838380828437600081840152601f19601f820116905080830192505050505050509192919290803560ff16906020019092919080356fffffffffffffffffffffffffffffffff16906020019092919050505061020f565b005b6101556004803603602081101561013f57600080fd5b8101908080359060200190929190505050610374565b60405180858152602001806020018460ff1660ff168152602001836fffffffffffffffffffffffffffffffff166fffffffffffffffffffffffffffffffff168152602001828103825285818151815260200191508051906020019080838360005b838110156101d15780820151818401526020810190506101b6565b50505050905090810190601f1680156101fe5780820380516001836020036101000a031916815260200191505b509550505050505060405180910390f35b60405180606001604052808481526020018360ff168152602001826fffffffffffffffffffffffffffffffff16815250600080868152602001908152602001600020600082015181600001908051906020019061026d929190610497565b5060208201518160010160006101000a81548160ff021916908360ff16021790555060408201518160010160016101000a8154816fffffffffffffffffffffffffffffffff02191690836fffffffffffffffffffffffffffffffff160217905550905050837fce90ca7bf808648762db484c1d2c0015a124adff039dcdc743d06f322f49f8d8846040518080602001828103825283818151815260200191508051906020019080838360005b83811015610334578082015181840152602081019050610319565b50505050905090810190601f1680156103615780820380516001836020036101000a031916815260200191505b509250505060405180910390a250505050565b600060606000806000808681526020019081526020016000206000018054600181600116156101000203166002900480601f0160208091040260200160405190810160405280929190818152602001828054600181600116156101000203166002900480156104245780601f106103f957610100808354040283529160200191610424565b820191906000526020600020905b81548152906001019060200180831161040757829003601f168201915b5050505050925060008086815260200190815260200160002060010160009054906101000a900460ff16915060008086815260200190815260200160002060010160019054906101000a90046fffffffffffffffffffffffffffffffff1690508483838393509350935093509193509193565b828054600181600116156101000203166002900490600052602060002090601f016020900481019282601f106104d857805160ff1916838001178555610506565b82800160010185558215610506579182015b828111156105055782518255916020019190600101906104ea565b5b5090506105139190610517565b5090565b61053991905b8082111561053557600081600090555060010161051d565b5090565b9056fea265627a7a72315820345dc9dc4ea212497738a9d7e85f9a7a309e2158e10f94ec6e8c1925f07ad75f64736f6c63430005100032",
  "source": "// SPDX-License-Identifier: MIT\npragma solidity >=0.4.22 <0.9.0;\n\ncontract EventTest {\n    struct user {\n        string name;\n        uint8 age;\n        uint128 phone;\n    }\n    \n    mapping (uint => user) userData;\n    \n    event notify(uint indexed id, string name);\n    \n    function setUser(uint id, string memory name, uint8 age, uint128 phone ) public {\n        userData[id] = user(name, age, phone);\n        emit notify(id, name);\n    }\n    \n    function getUser(uint id) public view returns (uint, string memory name, uint8 age, uint128 phone) {\n        name = userData[id].name;\n        age = userData[id].age;\n        phone = userData[id].phone;\n        \n        return (id, name, age, phone);\n    }\n}\n",
  "sourcePath": "/home/unblok/Zumi/EventTest/Backend/truffle/contracts/EventTest.sol",
  "compiler": {
    "name": "solc",
    "version": "0.5.16+commit.9c3226ce.Emscripten.clang"
  },
  "schemaVersion": "3.3.3",
  "updatedAt": "2021-01-12T12:19:31.158Z",
  "networkType": "ethereum",
  "devdoc": {
    "methods": {}
  },
  "userdoc": {
    "methods": {}
  }
}